:03000000020B559B
:0C0B5500787FE4F6D8FD758120020B9C2F
:100C6900E4F508F509F50DF50CF50BF50A120D6615
:100C79007F94120D528E088F09AC08AD09E4120950
:100C8900ABE4FBFA79A07840120800E4FBFA79801A
:100C990078451209098F0D8E0C8D0B8C0AE4FFFE25
:100CA9007D207C41AB0DAA0CA90BA80A12080012E1
:0B0CB90009E48E088F09120BE180B5E2
:0A0D84003F065B4F666D7D077F6F31
:0D0D76000819000000000000000001180036
:100AC800E4F580E518B408004003020B54900ADCF2
:100AD800F8282873020AF4020B00020B0C020B1808
:100AE800020B24020B30020B3C020B48C2A2C2A329
:100AF800C2A4051885198022D2A2C2A3C2A40518CF
:100B0800851A8022C2A2D2A3C2A40518851B8022FE
:100B1800D2A2D2A3C2A40518851C8022C2A2C2A355
:100B2800D2A40518851D8022D2A2C2A3D2A405187A
:100B3800851E8022C2A2D2A3D2A40518851F8022B6
:0C0B4800D2A2D2A3D2A4E4F5188520802C
:010B5400227E
:040BE1008E0E8F0FD6
:100BE5007B01EBFF3395E0FEC3EF9408EE64809440
:100BF500805023AE0EAF0F7C007D0A120A6574107B
:100C05002BF8A605AE0EAF0F7C007D0A120A658E85
:100C15000E8F0F0B80CC7B07EBFF3395E0FEC3EF08
:100C25009402EE64809480401074102BF8E67009ED
:100C350074192BF8E4F61B80DFEBFF3395E0FEC358
:100C4500EF9401EE64809480401374102BF8E690C5
:100C55000D8493FF74192BF8A6071B80DC75193ECC
:030C6500431B80AE
:010C68002269
:100D0500E4FEC2B600EEC39408748094805018EFD8
:100D1500C4131313540124FF92B4EF25E0FFC2B6A8
:070D250000D2B6000E80DED3
:010D2C0022A4
:100D2D00E4FDFFFED2B600EDC3940C7480948050A8
:100D3D0013EF25E0FFEE33FEC2B600A2B7E4334257
:040D4D00070D80E32B
:010D5100227F
:100D5200E4FDFCC2B5120D05C2B600D2B600120DFA
:030D62002DD2B5DA
:010D6500226B
:100D6600D2AF758901758CFC758A66D2A9D28C22A0
:03000B00020CC420
:100CC400C0E0C0F0C083C082C0D075D000C000C0F6
:100CD40001C002C003C004C005C006C007758CFC77
:100CE400758A66120AC8D007D006D005D004D0038E
:100CF400D002D001D000D0D0D082D083D0F0D0E0C8
:010D040032BC
:10080000EC4D6011E8497017ED33EC3304600DE4F2
:10081000FCFFFEFD22E933E8330470F8020A5012AF
:100820000A1B58046009E4CC2481500628500902B0
:100830000A5A284003020A57C0E0EB4A7044B980C4
:1008400006D0E0FB020A46EF4E701CBD8008EBFFAD
:10085000EAFEE9FD80EBE98DF0A4FEE5F00208E98F
:10086000E9CDF9EAFEEBFFEF89F0A4FCE5F0CE89D3
:10087000F0A42EFFE435F0CD89F0A42DFEE435F090
:100880008067EF4E7005BD80D780C3EF8BF0A4ACBE
:10089000F0EE8BF0A42CFCE435F0F8EF8AF0A42CF9
:1008A000E5F038FCE433CB8DF0A42CFCE5F03BF80C
:1008B000EE8AF0A42CFCE5F038F8E433CF89F0A4FC
:1008C0002CFCE5F038CF3400CE89F0A42FFFE5F002
:1008D0003EFEE433C98DF0A42EFEE5F039CD8AF05A
:1008E000A42FFFE5F03EFEE43DFD33D0E0FB5007D2
:1008F0000BBB000F020A5AEC2CFCEF33FFEE33FE69
:06090000ED33FD020A3296
:10090600020A5AEC5D046005E859047003020A50B5
:10091600120A1B580460F6EC4860F2EC7004FDFE07
:10092600FF22C860DB2481C85009C39860025006C4
:10093600020A579850CAF582E9294B4A7005AB82DC
:10094600020A4675F0007C1A7880C3EF9BEE9AED9A
:1009560099400DC3EF9BFFEE9AFEED99FDE842F03C
:10096600DC23ACF0D0E0FFD0E0FED0E0FDAB82208F
:10097600E7101BEB60BAEC2CFCEF33FFEE33FEED19
:1009860033FD020A32E803F830E705C0F075F000DF
:10099600EF2FFFEE33FEED33FD40B830E7C280AAFD
:1009A60075F020800E75F010800575F0087D007ECC
:1009B600007F003392D530D503120ABAEC334010CB
:1009C600EF33FFEE33FEED33FDEC33FCD5F0ED22D5
:0E09D600E5F0247EA2D513CC92E7CDCEFF2211
:1009E400EDD2E7CD33EC3392D524814006E4FFFE0B
:1009F400FDFC22FCE4CFCECDCC24E0501174FF806A
:100A0400EDC3CC13CCCD13CDCE13CECF13CF047006
:070A1400F030D5DE020ABA42
:100A1B00E9D2E7C933E833F892D5EDD2E7CD33EC21
:070A2B0033FC5002B2D5229A
:100A3200EC30E7100FBF000C0EBE00080DBD000425
:100A42000BEB6014A2D5EB13FCED92E7FD2274FFD1
:100A5200FCFDFEFF22E480F8A2D574FF13FC7D802A
:030A6200E480EF3E
:100B6100020C69E493A3F8E493A34003F68001F235
:100B710008DFF48029E493A3F85407240CC8C33395
:100B8100C4540F4420C8834004F456800146F6DF64
:100B9100E4800B0102040810204080900D76E47E71
:100BA100019360BCA3FF543F30E509541FFEE49359
:100BB100A360010ECF54C025E060A840B8E493A320
:100BC100FAE493A3F8E493A3C8C582C8CAC583CA4B
:100BD100F0A3C8C582C8CAC583CADFE9DEE780BE03
:010D8300006F
:100A6500BC000BBE0029EF8DF084FFADF022E4CC75
:100A7500F875F008EF2FFFEE33FEEC33FCEE9DEC3E
:100A8500984005FCEE9DFE0FD5F0E9E4CEFD22ED84
:100A9500F8F5F0EE8420D21CFEADF075F008EF2FCE
:100AA500FFED33FD4007985006D5F0F222C398FDBF
:050AB5000FD5F0EA225C
:0E0ABA00C3E49FFFE49EFEE49DFDE49CFC224D
:00000001FF
