:030000000208F6FD
:0C08F600787FE4F6D8FD75811302093DFF
:1009D400E4F50E120A72120982E4F50EC3E50E94D0
:1009E400037480948050EF7408250EF8E6FF740BAE
:1009F400250EF8E66F600AEF6007E50E04FF120AA1
:100A040041740B250EF8E6FF7408250EF8A60705B9
:030A14000E80C988
:060A610001120001130068
:030A82000101016E
:0A0A6700030B010101030801010166
:10098200780F7C007D007BFF7A0A79827E007F03EC
:100992001208D0E4FFA2B133F50FA2B0E433F51090
:1009A200A2B2E433F511EFC3940374809480502112
:1009B200740F2FF8E6FD7C007008740B2FF8E4F634
:1009C200800CED64014C7006740B2FF876010F80D9
:0109D200D54F
:0109D3002201
:100A4100EFFD7C006401700475120522ED64024C17
:100A5100700475120F22ED64034C70037512192294
:100A7200D2AF758901758CFC758A66D2A9D28C2297
:03000B00020A17CF
:100A1700C0E0C0D0758CFC758A660513C3E51394D6
:100A2700C8748094804003751300E513B51204D28F
:0A0A3700A18002C2A1D0D0D0E032AD
:100902000209D4E493A3F8E493A34003F68001F22E
:1009120008DFF48029E493A3F85407240CC8C333F6
:10092200C4540F4420C8834004F456800146F6DFC5
:10093200E4800B0102040810204080900A61E47EEA
:10094200019360BCA3FF543F30E509541FFEE493BA
:10095200A360010ECF54C025E060A840B8E493A381
:10096200FAE493A3F8E493A3C8C582C8CAC583CAAC
:10097200F0A3C8C582C8CAC583CADFE9DEE780BE64
:010A71000084
:10080000E709F608DFFA8046E709F208DFFA803EDA
:1008100088828C83E709F0A3DFFA8032E309F608C7
:10082000DFFA8078E309F208DFFA807088828C832F
:10083000E309F0A3DFFA806489828A83E0A3F608E3
:10084000DFFA805889828A83E0A3F208DFFA804CBD
:1008500080D280FA80C680D4806980F28033801094
:1008600080A680EA809A80A880DA80E280CA8033FD
:1008700089828A83ECFAE493A3C8C582C8CCC58375
:10088000CCF0A3C8C582C8CCC583CCDFE9DEE78045
:100890000D89828A83E493A3F608DFF9ECFAA9F0C4
:1008A000EDFB2289828A83ECFAE0A3C8C582C8CC1A
:1008B000C583CCF0A3C8C582C8CCC583CCDFEADE33
:1008C000E880DB89828A83E493A3F208DFF980CC95
:1008D00088F0EF60010E4E60C388F0ED2402B4048E
:1008E0000050B9F582EB2402B4040050AF23234535
:0608F00082239008507302
:00000001FF
