:030000000208F6FD
:0C08F600787FE4F6D8FD75811102093D01
:100A3400E4F50F120AC2E4F50FC3E50F94027480C3
:100A4400948050F27408250FF8E6FF740A250FF815
:100A5400E66F600AEF6007E50F04FF120A74740A78
:100A6400250FF8E6FF7408250FF8A607050F80C9BF
:070AB200020C0000010E0020
:020AD200010120
:080AB900020A0101020801011B
:1009E80078107C007D007BFF7A0A79D27E007F0236
:1009F8001208D0E4FFA2B133F510A2B0E433F51128
:100A0800EFC3940274809480502174102FF8E6FD8F
:100A18007C007008740A2FF8E4F6800CED64014C31
:0B0A28007006740A2FF876010F80D5CD
:010A330022A0
:100A7400EFFD7C0064017016D3E50D9403E50C646E
:100A840080948050287402250DF50DE4801BED64DC
:100A9400024C7019C3E50D9402E50C648094804007
:0E0AA4000C74FE250DF50D74FF350CF50C22BB
:100AC200D2AF758901758CFE758A33D2A9D28C2278
:03000B0002098265
:10098200C0E0C0F0C083C082C0D075D000C000C03B
:1009920001C002C003C004C005C006C007758CFEBA
:1009A200758A331209E8050EC3E50E942874809403
:1009B200804003750E00D3E50E950DE50C6480F8BA
:1009C2007480985004D2A18002C2A1D007D006D070
:1009D20005D004D003D002D001D000D0D0D082D034
:0609E20083D0F0D0E032EA
:10090200020A34E493A3F8E493A34003F68001F2CD
:1009120008DFF48029E493A3F85407240CC8C333F6
:10092200C4540F4420C8834004F456800146F6DFC5
:10093200E4800B0102040810204080900AB2E47E99
:10094200019360BCA3FF543F30E509541FFEE493BA
:10095200A360010ECF54C025E060A840B8E493A381
:10096200FAE493A3F8E493A3C8C582C8CAC583CAAC
:10097200F0A3C8C582C8CAC583CADFE9DEE780BE64
:010AC1000034
:10080000E709F608DFFA8046E709F208DFFA803EDA
:1008100088828C83E709F0A3DFFA8032E309F608C7
:10082000DFFA8078E309F208DFFA807088828C832F
:10083000E309F0A3DFFA806489828A83E0A3F608E3
:10084000DFFA805889828A83E0A3F208DFFA804CBD
:1008500080D280FA80C680D4806980F28033801094
:1008600080A680EA809A80A880DA80E280CA8033FD
:1008700089828A83ECFAE493A3C8C582C8CCC58375
:10088000CCF0A3C8C582C8CCC583CCDFE9DEE78045
:100890000D89828A83E493A3F608DFF9ECFAA9F0C4
:1008A000EDFB2289828A83ECFAE0A3C8C582C8CC1A
:1008B000C583CCF0A3C8C582C8CCC583CCDFEADE33
:1008C000E880DB89828A83E493A3F208DFF980CC95
:1008D00088F0EF60010E4E60C388F0ED2402B4048E
:1008E0000050B9F582EB2402B4040050AF23234535
:0608F00082239008507302
:00000001FF
