:03000000020AA051
:0C0AA000787FE4F6D8FD758115020AE7A6
:0A0B3F00C0F9A4B0999282F88090EA
:100B2C000608FFFFFFFFFFFF011100020E0000018E
:020B3C001000A7
:10080000E4F515F514F513F512D2AFC294D2937531
:100810008901758CFCF58AD2A9D28CE5116401702E
:10082000FAF511E5152401F515E43514F514E43550
:1008300013F513E43512F512E47B0AFAF9F8AF1553
:10084000AE14AD13AC12120962743F2BF582740B17
:100850003AF583E493F508E47B0AFAF9F8AF15AEAC
:1008600014AD13AC12120962E47B0AFAF9F812090A
:1008700062743F2BF582740B3AF583E493F509E437
:100880007B64FAF9F8AF15AE14AD13AC121209621D
:10089000E47B0AFAF9F8120962743F2BF582740BB3
:1008A0003AF583E493F50AE47BE87A03F9F8AF15A7
:1008B000AE14AD13AC12120962E47B0AFAF9F81215
:1008C0000962743F2BF582740B3AF583E493F50BC0
:1008D000E47B107A27F9F8AF15AE14AD13AC121201
:1008E0000962E47B0AFAF9F8120962743F2BF58277
:1008F000740B3AF583E493F50C7BA07A8679017842
:1009000000AF15AE14AD13AC12120962E47B0AFA03
:10091000F9F8120962743F2BF582740B3AF583E4FF
:0609200093F50D02081B17
:03000B000209F4F3
:1009F400C0E0C0D0758CFC758A00050FE50F70024D
:100A0400050EC394E8E50E94034009750E00750FB6
:100A1400007511017580FFE51014601D14602D141C
:100A2400603D14604D14605D2405706BC290C291EA
:100A3400C2928508800510805EE50964C06009D211
:100A440090C291C2928509800510804BE50A64C06A
:100A54006009C290D291C292850A8005108038E55F
:100A64000B64C06009D290D291C292850B800510AC
:100A74008025E50C64C06009C290C291D292850CB5
:100A84008005108012E50D64C06009D290C291D235
:0C0A940092850D80751000D0D0D0E032AB
:100AAC00020800E493A3F8E493A34003F68001F258
:100ABC0008DFF48029E493A3F85407240CC8C3334B
:100ACC00C4540F4420C8834004F456800146F6DF1A
:100ADC00E4800B0102040810204080900B2CE47E73
:100AEC00019360BCA3FF543F30E509541FFEE4930F
:100AFC00A360010ECF54C025E060A840B8E493A3D6
:100B0C00FAE493A3F8E493A3C8C582C8CAC583CA00
:100B1C00F0A3C8C582C8CAC583CADFE9DEE780BEB8
:010B3E0000B6
:1009260075F008758200EF2FFFEE33FECD33CDCC88
:1009360033CCC58233C5829BED9AEC99E58298400B
:100946000CF582EE9BFEED9AFDEC99FC0FD5F0D6E8
:10095600E4CEFBE4CDFAE4CCF9A88222B800C1B912
:100966000059BA002DEC8BF084CFCECDFCE5F0CB50
:10097600F97818EF2FFFEE33FEED33FDEC33FCEB89
:1009860033FB10D703994004EB99FB0FD8E5E4F944
:10099600FA227818EF2FFFEE33FEED33FDEC33FC31
:1009A600C933C910D7059BE99A4007EC9BFCE99A25
:1009B600F90FD8E0E4C9FAE4CCFB2275F010EF2F6A
:1009C600FFEE33FEED33FDCC33CCC833C810D7076A
:1009D6009BEC9AE899400AED9BFDEC9AFCE899F8A5
:0E09E6000FD5F0DAE4CDFBE4CCFAE4C8F92238
:00000001FF
