:03000000020ABA37
:0C0ABA00787FE4F6D8FD758113020B0173
:0A0B8A00C0F9A4B0999282F880909F
:080B94000608FFFFFFFFFFFF51
:10080000E4F50EF50FF510F511F512F513D293C2BC
:1008100094758901758CFCF58AD28C308DFDC28D62
:10082000758CFCE4F58A050FE50F7002050EC39484
:10083000E8E50E94035003020907E4F50EF50F05F1
:1008400013E51370020512AE12FF7C007D0A120937
:1008500097748A2DF582740B3CF583E493F508AE0A
:1008600012AF137C007D0A1209977C007D0A1209E1
:1008700097748A2DF582740B3CF583E493F509AEE9
:1008800012AF137C007D641209977C007D0A120967
:1008900097748A2DF582740B3CF583E493F50AAEC8
:1008A00012AF137C037DE81209977C007D0A1209C0
:1008B00097748A2DF582740B3CF583E493F50BAEA7
:1008C00012AF137C277D101209977C007D0A120954
:1008D00097748A2DF582740B3CF583E493F50CAE86
:1008E00012AF13E4FCFD7BA07A867901F8120B4667
:1008F000E47B0AFAF9F8120B46748A2BF582740B22
:100900003AF583E493F50DD294E510600302099261
:10091000E5111460231460331460431460531460B1
:10092000632405706DC290C291C2920511E51170E9
:10093000020510850880805AD290C291C29205119A
:10094000E511700205108509808047C290D291C2DE
:10095000920511E51170020510850A808034D2904D
:10096000D291C2920511E51170020510850B8080AD
:1009700021C290C291D2920511E511700205108535
:100980000C80800ED290C291D292E4F510F51185C0
:070990000D80C29402081B58
:100AC600020800E493A3F8E493A34003F68001F23E
:100AD60008DFF48029E493A3F85407240CC8C33331
:100AE600C4540F4420C8834004F456800146F6DF00
:100AF600E4800B0102040810204080900B94E47EF1
:100B0600019360BCA3FF543F30E509541FFEE493F4
:100B1600A360010ECF54C025E060A840B8E493A3BB
:100B2600FAE493A3F8E493A3C8C582C8CAC583CAE6
:100B3600F0A3C8C582C8CAC583CADFE9DEE780BE9E
:010B9C000058
:10099700BC000BBE0029EF8DF084FFADF022E4CC44
:1009A700F875F008EF2FFFEE33FEEC33FCEE9DEC0D
:1009B700984005FCEE9DFE0FD5F0E9E4CEFD22ED53
:1009C700F8F5F0EE8420D21CFEADF075F008EF2F9D
:1009D700FFED33FD4007985006D5F0F222C398FD8E
:0509E7000FD5F0EA222B
:100B4600C2D5E830E70FB2D5E4C39BFBE49AFAE4DA
:100B560099F9E498F8EC30E717B2D5120B7C120A33
:100B660028E4C39BFBE49AFAE499F9E498F8800335
:100B7600120A2830D50DE4C39FFFE49EFEE49DFDD6
:040B8600E49CFC22CD
:1009EC0075F008758200EF2FFFEE33FECD33CDCCC2
:1009FC0033CCC58233C5829BED9AEC99E582984045
:100A0C000CF582EE9BFEED9AFDEC99FC0FD5F0D621
:100A1C00E4CEFBE4CDFAE4CCF9A88222B800C1B94B
:100A2C000059BA002DEC8BF084CFCECDFCE5F0CB89
:100A3C00F97818EF2FFFEE33FEED33FDEC33FCEBC2
:100A4C0033FB10D703994004EB99FB0FD8E5E4F97D
:100A5C00FA227818EF2FFFEE33FEED33FDEC33FC6A
:100A6C00C933C910D7059BE99A4007EC9BFCE99A5E
:100A7C00F90FD8E0E4C9FAE4CCFB2275F010EF2FA3
:100A8C00FFEE33FEED33FDCC33CCC833C810D707A3
:100A9C009BEC9AE899400AED9BFDEC9AFCE899F8DE
:0E0AAC000FD5F0DAE4CDFBE4CCFAE4C8F92271
:00000001FF
