:03000000020800F3
:0C080000787FE4F6D8FD758122020847DD
:10091400081B7FBFDFEFF7FBFDFE080B387C7E3F33
:100924003F7E7C380813387C7E2A157E7C38010A89
:050934000002080000B4
:1008ED00E4FEEEC39408748094805016EFC4131385
:1008FD0013540124FF92B4EF25E0FFC2B6D2B60E19
:06090D0080E0D2B5C2B586
:0109130022C1
:10088C00D2AF758901758CFC758A66D2A9D28CE4BD
:10089C00FDEDC394087480948050F4741B2DF8E61D
:1008AC00F58074132DF8E6FF1208ED750A01E4F5D6
:0808BC000AFF1208ED0D80D9BE
:03000B000208C424
:0408C400C0E0C0D000
:1008C800758CFC758A660509E50970020508C394EC
:1008D80032E50894004009750800750900750A0199
:0508E800D0D0D0E03289
:10080C0002088CE493A3F8E493A34003F68001F26E
:10081C0008DFF48029E493A3F85407240CC8C333ED
:10082C00C4540F4420C8834004F456800146F6DFBC
:10083C00E4800B0102040810204080900914E47E2F
:10084C00019360BCA3FF543F30E509541FFEE493B1
:10085C00A360010ECF54C025E060A840B8E493A378
:10086C00FAE493A3F8E493A3C8C582C8CAC583CAA3
:10087C00F0A3C8C582C8CAC583CADFE9DEE780BE5B
:0109390000BD
:00000001FF
