:03000000020BE50B
:0C0BE500787FE4F6D8FD758138020C2CF6
:100DDD00E4F50BF50AF509F508F50C120F69120F7C
:100DED0045120FA68F0B8E0A8D098C08120E2C8FB3
:100DFD000CEF64017005120F798014E50C6402701C
:100E0D0005120F9C8009E50C64037003120EE6AF0A
:0F0E1D000BAE0AAD09AC08120ABBE4F50C80C29B
:100E6D008F1A120F007FA07E007D007C00120CD91E
:100E7D00120E9DAF1AE4FCFDFE120CD9120E9DAFA1
:100E8D001EAE1DAD1CAC1B120CD9120E9D020F59BE
:020D8B008F0DCA
:100D8D00E4F511F510F50FF50E120F007FA07E00A2
:100D9D007D007C00120CD9120E9DAF0DE4FCFDFE02
:100DAD00120CD9120E9D120F007FA17E007D007CCA
:100DBD0000120CD9120E9D7F01120C718F118E1025
:0F0DCD008D0F8C0E120F59AF11AE10AD0FAC0E73
:010DDC0022F4
:100F0000D2A0D2A17F01120FB7C2A07F01120FB7EA
:070F1000C2A17F01020FB72F
:100F5900C2A0D2A17F01120FB7D2A07F01020FB7A1
:100F1700C2A1C2A07F01120FB7D2A17F01120FB7E2
:070F2700C2A17F01020FB718
:100F2E00C2A1D2A07F01120FB7D2A17F01120FB7BB
:070F3E00C2A17F01020FB701
:100E9D00E4F51FD2A17F01120FB730A013051FC3B8
:100EAD00E51F94647480948040F0120F597F0122E5
:040EBD00C2A17F004F
:010EC100220E
:080CD9008F228E218D208C1F5B
:100CE100C2A1E4F523C3E5239408748094805040A5
:100CF100E5225480FFE4FEFDFCFBFAF9F8C312097A
:100D0100C45004D2A08002C2A0AF22AE21AD20AC5B
:100D11001F78011209D58F228E218D208C1FD2A11F
:100D21007F01120FB7C2A17F01120FB7052380B552
:010D3100229F
:020C71008F12E0
:100C7300E4F517F516F515F514F513C3E513940804
:100C830074809480503BC2A17F01120FB7D2A17F21
:100C930001120FB7AF17AE16AD15AC1478011209D8
:100CA300D58F178E168D158C1430A011EF2401F5F6
:100CB30017E43EF516E43DF515E43CF51405138001
:100CC300BAE5126005120F2E8003120F17AF17AE8D
:050CD30016AD15AC1484
:010CD80022F9
:080FAF00010101010101010132
:060EC200043501010101ED
:100E2C00780D7C007D007BFF7A0F79AF7E007F040C
:100E3C001208D0E4FFEFC3940474809480501F74A4
:100E4C00352FF8E6FE740D2FF8E6FD6E600DED60A3
:100E5C0004EF04F511740D2FF8A6060F80D7AF110F
:010E6C002263
:100D3200781A7C007D007BFF7A0F79B37E007F04F6
:100D42001208D0A2B1E433F51AA2B0E433F51BA223
:100D5200B2E433F51CA2B3E433F51DE4FFEFC39410
:100D620004748094805021741A2FF8E6FD7C007080
:100D72000874352FF8E4F6800CED64014C700674AB
:080D8200352FF876010F80D532
:010D8A002246
:0A0F92003F065B4F666D7D077F6F21
:0D0EC80008250000000000000000012400CB
:100B5800E4F580E524B408004003020BE4900B6C34
:100B6800F8282873020B84020B90020B9C020BA836
:100B7800020BB4020BC0020BCC020BD8C2A2C2A358
:100B8800C2A4052485258022D2A2C2A3C2A405241A
:100B980085268022C2A2D2A3C2A40524852780224A
:100BA800D2A2D2A3C2A4052485288022C2A2C2A3AD
:100BB800D2A4052485298022D2A2C2A3D2A40524C6
:100BC800852A8022C2A2D2A3D2A40524852B802202
:0C0BD800D2A2D2A3D2A4E4F524852C8084
:010BE40022EE
:080ABB008F108E0F8D0E8C0DC3
:100AC300E4F511AF11EF3395E0FEC3EF9408EE6444
:100AD3008094805037E47B0AFAF9F8AF10AE0FAD7B
:100AE3000EAC0D120932AF0374122511F8A607AF2D
:100AF30010AE0FAD0EAC0DE47B0AFAF9F812093211
:100B03008F108E0F8D0E8C0D051180B7751107AFE9
:100B130011EF3395E0FEC3EF9401EE6480948040BF
:100B23001174122FF8E6700A74252FF8E4F61511E4
:100B330080DDAF11EF3395E0C3648094804015747A
:100B4300122FF8E6900F9293FF74252511F8A6074C
:040B5300151180DE1A
:010B5700227B
:100ED500042F00000000013300013400022D000042
:090FA600AF32AE31AD30AC2F22A8
:100F4500120F868F328E318D308C2F120FBE8F345B
:040F5500E4F533226A
:0A0F9C00E4F532F531F530F52F22AF
:0D0F7900E53370047F0180027F008F33227A
:100EE600E53470047F0180027F008F34E48F1EF5A5
:0A0EF6001DF51CF51B7F01020E6DB7
:070FB700AE071FEE70FA22E5
:100F6900D2AF758901758CFC758A66D2A9D28C229B
:0C0F86007F007E007D007C00E4020D8BEB
:060FBE00E4FF0F020D8BA1
:03000B000209E8FF
:1009E800C0E0C0F0C083C082C0D075D000C000C0D5
:0D09F80001C002C003C004C005C006C00756
:100A0500758CFC758A66120B58E5336003020A9DE6
:100A1500052EE52E7002052DC394E8E52D940340BF
:100A250077752D00752E00E5347017E5322401F534
:100A350032E43531F531E43530F530E4352FF52F35
:100A45008045E53224FFF532E53134FFF531E530F7
:100A550034FFF530E52F34FFF52FE4FFFEFDFCAB49
:100A650032AA31A930A82FC31209C4701AE534700F
:100A7500047F0180027F008F34E48F1EF51DF51C75
:100A8500F51B7F01120E6D85321E85311D85301CCB
:0B0A9500852F1BE4FF120E6D120D32C6
:100AA000D007D006D005D004D003D002D001D000AA
:0B0AB000D0D0D082D083D0F0D0E03254
:100BF100020DDDE493A3F8E493A34003F68001F230
:100C010008DFF48029E493A3F85407240CC8C33304
:100C1100C4540F4420C8834004F456800146F6DFD3
:100C2100E4800B0102040810204080900EC2E47E93
:100C3100019360BCA3FF543F30E509541FFEE493C8
:100C4100A360010ECF54C025E060A840B8E493A38F
:100C5100FAE493A3F8E493A3C8C582C8CAC583CABA
:100C6100F0A3C8C582C8CAC583CADFE9DEE780BE72
:010EE500000C
:10080000E709F608DFFA8046E709F208DFFA803EDA
:1008100088828C83E709F0A3DFFA8032E309F608C7
:10082000DFFA8078E309F208DFFA807088828C832F
:10083000E309F0A3DFFA806489828A83E0A3F608E3
:10084000DFFA805889828A83E0A3F208DFFA804CBD
:1008500080D280FA80C680D4806980F28033801094
:1008600080A680EA809A80A880DA80E280CA8033FD
:1008700089828A83ECFAE493A3C8C582C8CCC58375
:10088000CCF0A3C8C582C8CCC583CCDFE9DEE78045
:100890000D89828A83E493A3F608DFF9ECFAA9F0C4
:1008A000EDFB2289828A83ECFAE0A3C8C582C8CC1A
:1008B000C583CCF0A3C8C582C8CCC583CCDFEADE33
:1008C000E880DB89828A83E493A3F208DFF980CC95
:1008D00088F0EF60010E4E60C388F0ED2402B4048E
:1008E0000050B9F582EB2402B4040050AF23234535
:0608F00082239008507302
:1008F60075F008758200EF2FFFEE33FECD33CDCCB9
:1009060033CCC58233C5829BED9AEC99E58298403B
:100916000CF582EE9BFEED9AFDEC99FC0FD5F0D618
:10092600E4CEFBE4CDFAE4CCF9A88222B800C1B942
:100936000059BA002DEC8BF084CFCECDFCE5F0CB80
:10094600F97818EF2FFFEE33FEED33FDEC33FCEBB9
:1009560033FB10D703994004EB99FB0FD8E5E4F974
:10096600FA227818EF2FFFEE33FEED33FDEC33FC61
:10097600C933C910D7059BE99A4007EC9BFCE99A55
:10098600F90FD8E0E4C9FAE4CCFB2275F010EF2F9A
:10099600FFEE33FEED33FDCC33CCC833C810D7079A
:1009A6009BEC9AE899400AED9BFDEC9AFCE899F8D5
:0E09B6000FD5F0DAE4CDFBE4CCFAE4C8F92268
:1009C400EB9FF5F0EA9E42F0E99D42F0E89C45F089
:0109D4002200
:1009D500E8600FEFC333FFEE33FEED33FDEC33FC80
:0309E500D8F12224
:00000001FF
