:0300000002089B58
:0C089B00787FE4F6D8FD7581300208E299
:100B5200120B66120A9C120B05120AC7120A3512F0
:040B62000AE680FB24
:0A0B76003F065B4F666D7D077F6F41
:0A0A6C00081E00000000000000005A
:10080000E4FFEFC3940874809480400302089AE4E4
:10081000F580EFB4080050EA90081FF8282873020A
:10082000083702084302084F02085B020867020803
:100830007302087F02088CC2A2C2A3C2A40F851E45
:100840008080BFD2A2C2A3C2A40F851F8080B3C282
:10085000A2D2A3C2A40F85208080A7D2A2D2A3C215
:10086000A40F852180809BC2A2C2A3D2A40F85229F
:1008700080808FD2A2C2A3D2A40F8523808083C29E
:10088000A2D2A3D2A40F852480020802D2A2D2A3AE
:0A089000D2A4E4FF852580020802CF
:01089A00223B
:100AC700E4F530F530C3E530940774809480500E18
:0E0AD700120B2474262530F8A607053080E7A0
:010AE50022EE
:100AE6000526E52664597004F5260527E527645989
:0F0AF6007004F5270528E52864247002F52822EE
:100A3500E528C4540F900B7693F525E528540F93BC
:100A4500F524752340E527C4540F93F522E5275473
:100A55000F93F521752040E526C4540F93F51FE546
:070A650026540F93F51E2239
:100A7600071780828486888A8C07098183858789FF
:0E0A86008B8D071000371306110722010800A0
:1009EF00E4FEC2B500C2B600D2B500EEC3940874DF
:1009FF008094805011EF1392B4EFC313FFD2B6005F
:100A0F00C2B6000E80E5E4FEEEC3940874809480B5
:100A1F005011ED1392B4EDC313FDD2B600C2B60060
:050A2F000E80E5C2B5D8
:010A3400229F
:10099300E4FEFDF9C2B500C2B600D2B500EEC394C1
:1009A30008748094805010EF1392B4EFC313FFD2F6
:1009B300B600C2B60E80E6E4FEEEC39408748094DB
:1009C30080501AA2B4E433F9C43333335480FFEDB7
:1009D300C3134FFDD2B600C2B6000E80DCC2B50011
:0B09E300D2B600C2B400D2B400AF05D1
:0109EE0022E6
:100A9C00E4FCFD7F8E1209EFECC394077480948004
:100AAC00501274172CF8E6FF74102CF8E6FD12099E
:0B0ABC00EF0C80E47D8E7F8E0209EFBE
:100B0500E4FCECC3940774809480501274092CF8AB
:0E0B1500E6FF12099374102CF8A6070C80E47A
:010B230022AF
:100B240074102508F8E6FF0508E508C394067480E8
:070B340094804003E4F50882
:010B3B002297
:070A9400012D00022E0000FD
:070B8000AE071FEE70FA2220
:100B3C00AD071FED600FE4FEEEC3947874809480D3
:050B4C0050EE0E80F3E5
:010B51002281
:100B6600D2AF758901758CFC758A66D2A9D28C22A2
:03000B00020927C0
:10092700C0E0C0F0C083C082C0D075D000C000C096
:0D09370001C002C003C004C005C006C00717
:10094400052D052FE52F7002052E758CFC758A6622
:10095400E52FB4E80EE52EB40309752E00752F00BB
:10096400120AE6C3E52D940A748094804006752D1E
:040974000012080065
:10097800D007D006D005D004D003D002D001D000D3
:0B098800D0D0D082D083D0F0D0E0327D
:1008A700020B52E493A3F8E493A34003F68001F20A
:1008B70008DFF48029E493A3F85407240CC8C33352
:1008C700C4540F4420C8834004F456800146F6DF21
:1008D700E4800B0102040810204080900A6CE47E3B
:1008E700019360BCA3FF543F30E509541FFEE49316
:1008F700A360010ECF54C025E060A840B8E493A3DD
:10090700FAE493A3F8E493A3C8C582C8CAC583CA07
:10091700F0A3C8C582C8CAC583CADFE9DEE780BEBF
:010A9B00005A
:00000001FF
