:0300000002089B58
:0C089B00787FE4F6D8FD7581250208E2A4
:0E0AE500120A4C120AD5120AA0120A1580F845
:0A0AF3003F065B4F666D7D077F6FC5
:0A0A7700081D000000000000000050
:10080000E4FFEFC3940874809480400302089AE4E4
:10081000F580EFB4080050EA90081FF8282873020A
:10082000083702084302084F02085B020867020803
:100830007302087F02088CC2A2C2A3C2A40F851D46
:100840008080BFD2A2C2A3C2A40F851E8080B3C283
:10085000A2D2A3C2A40F851F8080A7D2A2D2A3C216
:10086000A40F852080809BC2A2C2A3D2A40F8521A1
:1008700080808FD2A2C2A3D2A40F8522808083C29F
:10088000A2D2A3D2A40F852380020802D2A2D2A3AF
:0A089000D2A4E4FF852480020802D0
:01089A00223B
:100A1500E511C4540F900AF393F524E511540F938F
:100A2500F523752240E510C4540F93F521E51054C4
:100A35000F93F520751F40E50FC4540F93F51EE580
:070A45000F540F93F51D2271
:100A8100071680828486888A8C07088183858789F6
:0B0A91008B8D070F00371306110722A2
:1009CF00E4FEC2B500C2B600D2B500EEC3940874FF
:1009DF008094805011EF1392B4EFC313FFD2B6007F
:1009EF00C2B6000E80E5E4FEEEC3940874809480D6
:1009FF005011ED1392B4EDC313FDD2B600C2B60081
:050A0F000E80E5C2B5F8
:010A140022BF
:10092700E4FEFDF9C2B500C2B600D2B500EEC3942D
:1009370008748094805011EF1392B4EFC313FFD261
:10094700B600C2B6000E80E5E4FEEEC394087480DC
:100957009480501AA2B4E433F9C43333335480FF7C
:10096700EDC3134FFDD2B600C2B6000E80DCC2B590
:06097700C2B4C2B6AF05D8
:01097D002257
:100A4C00E4FCFD7F8E1209CFECC394077480948074
:100A5C00501274162CF8E6FF740F2CF8E6FD1209F0
:0B0A6C00CF0C80E47D8E7F8E0209CF4E
:100AA000E4FCECC3940774809480501274082CF812
:0E0AB000E6FF120927740F2CF8A6070C80E44D
:010ABE002215
:030A9C0001250031
:070AFD00AE071FEE70FA22A4
:100ABF00AD071FED600FE4FEEEC394787480948051
:050ACF0050EE0E80F363
:010AD40022FF
:100AD500D2AF758901758CFC758A66D2A9D28C2234
:03000B0002097E69
:10097E00C0E0C0F0C083C082C0D075D000C000C03F
:0D098E0001C002C003C004C005C006C007C0
:10099B000525758CFC758A66C3E525940A748094CD
:0909AB00804006752500120800C9
:1009B400D007D006D005D004D003D002D001D00097
:0B09C400D0D0D082D083D0F0D0E03241
:1008A700020AE5E493A3F8E493A34003F68001F278
:1008B70008DFF48029E493A3F85407240CC8C33352
:1008C700C4540F4420C8834004F456800146F6DF21
:1008D700E4800B0102040810204080900A77E47E30
:1008E700019360BCA3FF543F30E509541FFEE49316
:1008F700A360010ECF54C025E060A840B8E493A3DD
:10090700FAE493A3F8E493A3C8C582C8CAC583CA07
:10091700F0A3C8C582C8CAC583CADFE9DEE780BEBF
:010A9F000056
:00000001FF
