:0300000002088D66
:0C088D00787FE4F6D8FD7581100208D4D5
:0109A4002230
:0A0993003F065B4F666D7D077F6F26
:0D098500080900000000000000000108004B
:10080000E4F580E508B40800400302088C90081461
:10081000F828287302082C020838020844020850FD
:1008200002085C020868020874020880C2A2C2A31F
:10083000C2A4050885098022D2A2C2A3C2A40508C9
:10084000850A8022C2A2D2A3C2A40508850B8022F9
:10085000D2A2D2A3C2A40508850C8022C2A2C2A340
:10086000D2A40508850D8022D2A2C2A3D2A4050875
:10087000850E8022C2A2D2A3D2A40508850F8022B1
:0C088000D2A2D2A3D2A4E4F50885108017
:01088C002249
:10091900E4FEC2B500C2B600D2B500EEC3940874B5
:100929008094805011EF1392B4EFC313FFD2B60035
:10093900C2B6000E80E5E4FEEEC39408748094808C
:100949005011ED1392B4EDC313FDD2B600C2B60037
:050959000E80E5C2B5AF
:01095E002276
:07099D00AE071FEE70FA2205
:10095F00AD071FED600FE4FEEEC3947874809480B2
:05096F0050EE0E80F3C4
:010974002260
:10097500D2AF758901758CFC758A66D2A9D28C2295
:100899000209A4E493A3F8E493A34003F68001F2C8
:1008A90008DFF48029E493A3F85407240CC8C33360
:1008B900C4540F4420C8834004F456800146F6DF2F
:1008C900E4800B0102040810204080900985E47E31
:1008D900019360BCA3FF543F30E509541FFEE49324
:1008E900A360010ECF54C025E060A840B8E493A3EB
:1008F900FAE493A3F8E493A3C8C582C8CAC583CA16
:10090900F0A3C8C582C8CAC583CADFE9DEE780BECD
:010992000064
:00000001FF
