:03000000020800F3
:0C080000787FE4F6D8FD75811D020847E2
:10096F001008C0F9A4B0999282F880908883C6A12C
:02097F00868E62
:10092D00E4F518F519758901758C3C758AAFD28C73
:10093D00308D26C28D758C3C758AAF0519E5197001
:10094D00020518C39414E5189400400DE4F518F54C
:10095D0019051BE51B7002051AAF1BAE1A1208E133
:02096D0080CE3A
:0408E1008E1C8F1DBD
:1008E500E4FBEBC3940874809480503B7580FFEB68
:1008F50024E8F590AE1CAF1D7C007D0A12088C74AF
:10090500082DF8E6F580AE1CAF1D7C007D0A1208A7
:100915008C8E1C8F1DE4FFEFC394C87480948050A7
:07092500030F80F30B80BB00
:01092C0022A8
:10080C0002092DE493A3F8E493A34003F68001F2CC
:10081C0008DFF48029E493A3F85407240CC8C333ED
:10082C00C4540F4420C8834004F456800146F6DFBC
:10083C00E4800B010204081020408090096FE47ED4
:10084C00019360BCA3FF543F30E509541FFEE493B1
:10085C00A360010ECF54C025E060A840B8E493A378
:10086C00FAE493A3F8E493A3C8C582C8CAC583CAA3
:10087C00F0A3C8C582C8CAC583CADFE9DEE780BE5B
:010981000075
:10088C00BC000BBE0029EF8DF084FFADF022E4CC50
:10089C00F875F008EF2FFFEE33FEEC33FCEE9DEC19
:1008AC00984005FCEE9DFE0FD5F0E9E4CEFD22ED5F
:1008BC00F8F5F0EE8420D21CFEADF075F008EF2FA9
:1008CC00FFED33FD4007985006D5F0F222C398FD9A
:0508DC000FD5F0EA2237
:00000001FF
