:03000000020C26C9
:0C0C2600787FE4F6D8FD758156020C6D55
:100E2500C0F9A4B0999282F880903132332B3435D1
:0A0E3500362F3738392A301B0D2DF7
:100D92000633FFFFFFFFFFFF1039010101010101CF
:100DA200010101010101010101010408000000002B
:100DB200040C0000000001100010110101010101EA
:100DC20001010101010101010101010121001022C2
:100DD200FFFFFFFFFFFFFFFFFFFFFFFFFFFFFFFF21
:030DE200013200DB
:100E0600C294D293D2AF758901758CFC758A66D26D
:0F0E1600A9D28C900E25E493F533120CB280FB19
:080B89008F4F8E4E8D4D8C4CF8
:100B9100E4F550AF50EF3395E0FEC3EF9406EE64F9
:100BA1008094805037E47B0AFAF9F8AF4FAE4EAD2E
:100BB1004DAC4C120A0CAF0374512550F8A607AF87
:100BC1004FAE4EAD4DAC4CE47B0AFAF9F8120A0C6B
:100BD1008F4F8E4E8D4D8C4C055080B7755005AFA3
:100BE10050EF3395E0FEC3EF9401EE6480948040B2
:100BF1001174512FF8E6700A74332FF876FF1550EF
:100C010080DDAF50EF3395E0C3648094804015746C
:100C1100512FF8E6900E2593FF74332550F8A6075F
:040C2100155080DE0C
:010C250022AC
:020800008F4B1C
:100802007E00C3EF943074809480404AD3EF9439D1
:10081200748094805040E47F0AFDFCAB0FAA0EA9BD
:100822000DA80C120981A804A905AA06AB07E54B7D
:1008320024D0FFE434FFFE3395E0FDFCEB2FF50FEF
:10084200EA3EF50EE93DF50DE83CF50CAF0FAE0EB4
:10085200AD0DFC02097DAF4BEF642B600FEF642DF1
:10086200600AEF642A6005EF642F7058E50B250FCC
:10087200F50BE50A350EF50AE509350DF509E5082A
:10088200350CF508E4F50FF50EF50DF50CAF4BFE42
:10089200EF642B7005751001801FEF642D4E7005FB
:1008A2007510028014EF642A4E70057510038009DA
:1008B200EF642F4E7003751004AF0BAE0AAD09AC96
:1008C2000802097DE54B640D600302095FE510240F
:1008D200FE602214603A14605424037076E50B25FE
:1008E2000FF50BE50A350EF50AE509350DF509E5B3
:1008F20008350C8017C3E50B950FF50BE50A950E2D
:10090200F50AE509950DF509E508950CF508803815
:10091200AF0BAE0AAD09AC08AB0FAA0EA90DA80C1D
:100922001209818F0B8E0A8D098C08801BAF0BAECA
:100932000AAD09AC08AB0FAA0EA90DA80C120A0C3D
:100942008F0B8E0A8D098C08E4F50FF50EF50DF567
:100952000CF510AF0BAE0AAD09AC08801EE54B6476
:100962001B701BF50BF50AF509F508F50FF50EF5E9
:0E0972000DF50CAF0FAE0EAD0DAC0C120B89D7
:010980002254
:100CB200E4F549C3E5499404748094805070E4F5E6
:100CC2004AC3E54A940474809480505EE54925E065
:100CD20025E02439254AF8E6FFE54925E025E02408
:100CE20011254AF8E6FE6F603DEE6020E54925E0F9
:100CF20025E0242FF582E4340EF583E582254AF5BA
:100D020082E43583F583E493FF120800E54925E088
:100D120025E02439254AF8E6FFE54925E025E024C7
:0E0D220011254AF8A607054A809705498085E5
:010D300022A0
:100A9E00E52125E025E02422F8E625E0FFA2A4E4E6
:100AAE00334FFFE52125E025E02422F8A607E521B6
:100ABE0025E025E02423F8E625E0FFA2A5E4334F48
:100ACE00FFE52125E025E02423F8A607E52125E012
:100ADE0025E02424F8E625E0FFA2A6E4334FFFE547
:100AEE002125E025E02424F8A607E52125E025E0D0
:100AFE002425F8E625E0FFA2A7E4334FFFE52125E4
:100B0E00E025E02425F8A607E4FFEFC394047480E3
:100B1E009480503FE52125E025E024222FF8E6546D
:100B2E000F700EC296E52125E025E024392FF8E45A
:100B3E00F6E52125E025E024222FF8E6540F640F78
:100B4E00700EE52125E025E024392FF87601D296A6
:100B5E000F80B70521532103E52114600F14601196
:100B6E0014601324037013C2A3D2A022C2A2D2A374
:0A0B7E0022C2A1D2A222C2A0D2A17D
:010B8800224A
:100D31007580FFE53214601C14602514602E146068
:100D41003714604024057048C290C291C2920532A6
:100D510085338022D290C291C2920532853480229D
:100D6100C290D291C292053285358022D290D29121
:100D7100C292053285368022C290C291D29205324A
:100D810085378022D290C291D292E4F532853880A3
:010D9100223F
:03000B00020DE6FD
:100DE600C0E0C0D075D000C000C007758CFC758A05
:100DF60066120D31120A9ED007D000D0D0D0E03254
:100C3200020E06E493A3F8E493A34003F68001F2C4
:100C420008DFF48029E493A3F85407240CC8C333C3
:100C5200C4540F4420C8834004F456800146F6DF92
:100C6200E4800B0102040810204080900D92E47E83
:100C7200019360BCA3FF543F30E509541FFEE49387
:100C8200A360010ECF54C025E060A840B8E493A34E
:100C9200FAE493A3F8E493A3C8C582C8CAC583CA79
:100CA200F0A3C8C582C8CAC583CADFE9DEE780BE31
:010DE500000D
:10098100E88FF0A4CC8BF0A42CFCE98EF0A42CFC15
:100991008AF0EDA42CFCEA8EF0A4CDA8F08BF0A493
:1009A1002DCC3825F0FDE98FF0A42CCD35F0FCEBF2
:1009B1008EF0A4FEA9F0EB8FF0A4CFC5F02ECD39B7
:0F09C100FEE43CFCEAA42DCE35F0FDE43CFC2224
:1009D00075F008758200EF2FFFEE33FECD33CDCCDE
:1009E00033CCC58233C5829BED9AEC99E582984061
:1009F0000CF582EE9BFEED9AFDEC99FC0FD5F0D63E
:100A0000E4CEFBE4CDFAE4CCF9A88222B800C1B967
:100A10000059BA002DEC8BF084CFCECDFCE5F0CBA5
:100A2000F97818EF2FFFEE33FEED33FDEC33FCEBDE
:100A300033FB10D703994004EB99FB0FD8E5E4F999
:100A4000FA227818EF2FFFEE33FEED33FDEC33FC86
:100A5000C933C910D7059BE99A4007EC9BFCE99A7A
:100A6000F90FD8E0E4C9FAE4CCFB2275F010EF2FBF
:100A7000FFEE33FEED33FDCC33CCC833C810D707BF
:100A80009BEC9AE899400AED9BFDEC9AFCE899F8FA
:0E0A90000FD5F0DAE4CDFBE4CCFAE4C8F9228D
:00000001FF
