:03000000020800F3
:0C080000787FE4F6D8FD758112020847ED
:10088C00E4F508F509F50D7B647DF67FFF1208F59C
:10089C00E50870140509AF09EF3395E0FEEF6432FB
:1008AC004E7012750801800D1509AF09EF3395E0F4
:1008BC004F7002F5087F0112090EAF09120934803E
:0108CC00CF5C
:0F092400011200010F00011000011100010E006F
:1008F5008F128D0F8B10850D1143890185128C8503
:090905000F8AD2A9D2AFD28C22D4
:030934008F1122FE
:03000B000208CD1B
:0408CD00C0E0C0D0F7
:1008D10085128C850F8A050EE50EC39510400375B0
:0F08E1000E00E50ED395115004D2A18002C2A1E2
:0508F000D0D0D0E03281
:10090E00AD071FED600FE4FEEED3947874809480F3
:05091E0050EE0E80F315
:0109230022B1
:10080C0002088CE493A3F8E493A34003F68001F26E
:10081C0008DFF48029E493A3F85407240CC8C333ED
:10082C00C4540F4420C8834004F456800146F6DFBC
:10083C00E4800B0102040810204080900924E47E1F
:10084C00019360BCA3FF543F30E509541FFEE493B1
:10085C00A360010ECF54C025E060A840B8E493A378
:10086C00FAE493A3F8E493A3C8C582C8CAC583CAA3
:10087C00F0A3C8C582C8CAC583CADFE9DEE780BE5B
:0109330000C3
:00000001FF
