:030000000209D121
:0C09D100787FE4F6D8FD758119020A1841
:100A9E00120AB8120AE0E518540F900AD693F50917
:0A0AAE00E518C4540F93F50A80EC1C
:070AE000D288D2A8D2B22295
:03000300020800F0
:10080000C0E0C0F0C083C082C0D075D000C000C0BE
:0D08100001C002C003C004C005C006C0073F
:10081D0075110075120075130075140075150030F3
:10082D00B2030209297511037512E820B21CE512F5
:10083D00451160167F01120AE7E5121512700215B7
:10084D0011E512451170E402092920B203020909CC
:10085D007511017512F430B21CE512451160167F49
:10086D0001120AE7E512151270021511E512451174
:10087D0070E4020929751300C3E513940474809480
:10088D00805079751400C3E51494087480948050D9
:10089D006675110075123C20B21BE51245116015ED
:1008AD007F01120AE7E512151270021511E51245C6
:1008BD001170E4806775110075121430B2147F0A3F
:1008CD00120AE70515C3E51594147480948040EB66
:1008DD00804A74162513F8C000E6C313D000F6C382
:1008ED00E515940874809480400974162513F8E674
:1008FD004480F60514808F0513020885E519F4650B
:10090D00186019751300C3E5139404748094805016
:0C091D000B74162513F87600051380EA11
:10092900D007D006D005D004D003D002D001D00022
:0B093900D0D0D082D083D0F0D0E032CC
:0A0AD6003F065B4F666D7D077F6FE2
:0D0AC8000809000000000000000001080007
:10094400E4F580E508B4080040030209D090095892
:10095400F828287302097002097C020988020994A4
:100964000209A00209AC0209B80209C4C2A2C2A3C6
:10097400C2A4050885098022D2A2C2A3C2A4050884
:10098400850A8022C2A2D2A3C2A40508850B8022B4
:10099400D2A2D2A3C2A40508850C8022C2A2C2A3FB
:1009A400D2A40508850D8022D2A2C2A3D2A4050830
:1009B400850E8022C2A2D2A3D2A40508850F80226C
:0C09C400D2A2D2A3D2A4E4F508851080D2
:0109D0002204
:100AB800D2AF758901758CFC758A66D2A9D28C2251
:070AE700AE071FEE70FA22BA
:03000B00020A5D89
:100A5D00C0E0C0F0C083C082C0D075D000C000C05F
:100A6D0001C002C003C004C005C006C007758CFCE0
:100A7D00758A66120944D007D006D005D004D0037C
:100A8D00D002D001D000D0D0D082D083D0F0D0E031
:010A9D003226
:1009DD00020A9EE493A3F8E493A34003F68001F288
:1009ED0008DFF48029E493A3F85407240CC8C3331B
:1009FD00C4540F4420C8834004F456800146F6DFEA
:100A0D00E4800B0102040810204080900AC8E47EA7
:100A1D00019360BCA3FF543F30E509541FFEE493DE
:100A2D00A360010ECF54C025E060A840B8E493A3A5
:100A3D00FAE493A3F8E493A3C8C582C8CAC583CAD0
:100A4D00F0A3C8C582C8CAC583CADFE9DEE780BE88
:010AD5000020
:00000001FF
