:0509C30012098080FE16
:0A09AC003F065B4F666D7D077F6F0D
:0D0990000809000000000000000001080040
:10080000E4F580E508B40800400302088C90081461
:10081000F828287302082C020838020844020850FD
:1008200002085C020868020874020880C2A2C2A31F
:10083000C2A4050885098022D2A2C2A3C2A40508C9
:10084000850A8022C2A2D2A3C2A40508850B8022F9
:10085000D2A2D2A3C2A40508850C8022C2A2C2A340
:10086000D2A40508850D8022D2A2C2A3D2A4050875
:10087000850E8022C2A2D2A3D2A40508850F8022B1
:0C088000D2A2D2A3D2A4E4F50885108017
:01088C002249
:0E099E00C2B77F4B1209B6D2B77F020209B66C
:10091900E4F51130B714C3E5119414748094805030
:100929000905117F011209B680E9C3E51194147410
:1009390080948040037F0122E4F51120B714C3E5B8
:1009490011941474809480500905117F011209B61D
:1009590080E9C3E51194147480948040037F0122D7
:020969007F000D
:01096B002269
:0609BD0012099E02091957
:10096C00E4FDEDC39408748094805007EF5401FEAD
:03097C000D80EFFC
:01097F002255
:10098000D2AF758901758CFC758A66D2A9D28C228A
:0709B600AE071FEE70FA22EC
:0300000002088D66
:0C088D00787FE4F6D8FD7581110208D4D4
:100899000209C3E493A3F8E493A34003F68001F2A9
:1008A90008DFF48029E493A3F85407240CC8C33360
:1008B900C4540F4420C8834004F456800146F6DF2F
:1008C900E4800B0102040810204080900990E47E26
:1008D900019360BCA3FF543F30E509541FFEE49324
:1008E900A360010ECF54C025E060A840B8E493A3EB
:1008F900FAE493A3F8E493A3C8C582C8CAC583CA16
:10090900F0A3C8C582C8CAC583CADFE9DEE780BECD
:01099D000059
:00000001FF
