:100CBE00E4F508F509750A01120DF3120E30120B48
:100CCE00F4E4FBFA792078411208001209448E08E8
:100CDE008F09C3E508648094805010C3E49509F52C
:100CEE0009E49508F508E4F50A8003750A01AD0AD2
:090CFE00AF09AE08120B7780C5A6
:0A0E1F003F065B4F666D7D077F6F95
:0D0E030008170000000000000000011600AC
:100A5E00E4F580E516B408004003020AEA900A7233
:100A6E00F8282873020A8A020A96020AA2020AAE1D
:100A7E00020ABA020AC6020AD2020ADEC2A2C2A33F
:100A8E00C2A4051685178022D2A2C2A3C2A405163F
:100A9E0085188022C2A2D2A3C2A40516851980226F
:100AAE00D2A2D2A3C2A40516851A8022C2A2C2A3C4
:100ABE00D2A40516851B8022D2A2C2A3D2A40516EB
:100ACE00851C8022C2A2D2A3D2A40516851D802227
:0C0ADE00D2A2D2A3D2A4E4F516851E809B
:010AEA0022E9
:060B77008E0B8F0C8D0DAA
:100B7D00E4FBFAAE0BAF0C7C007D0A1209C5740EB6
:100B8D002BF8A605AE0BAF0C7C007D0A1209C58EA5
:100B9D000B8F0C0BBB00010AEB64084A70D57A0071
:100BAD007B07740E2BF8E6600CE50D701774182B8F
:100BBD00F87640800F74172BF8E4F6EB1B70011AD2
:100BCD00EB4A70DEC3EA648094804017740E2BF8F4
:100BDD00E6900E1F93FF74172BF8A607EB1B70E41E
:060BED001A80E1431880AC
:010BF30022DF
:0E0E1100C2B77F4B120E29D2B77F02020E2904
:100C6B00E4F51230B714C3E51294147480948050D9
:100C7B000905127F01120E2980E9C3E51294147441
:100C8B0080948040037F0122E4F51220B714C3E562
:100C9B0012941474809480500905127F01120E294E
:100CAB0080E9C3E51294147480948040037F012281
:020CBB007F00B8
:010CBD002214
:060E3000120E11020C6B12
:020D48008F1208
:100D4A00E4F514F513C3E513940874809480502CC9
:100D5A00E5125401F514E512C313F512E514600DFA
:100D6A00C2B70000D2B77F06120DCD800BC2B77F83
:0C0D7A0006120E29D2B70000051380C934
:010D8600224A
:100DB100E4F514C2B70000D2B730B705751401804D
:0B0DC10003E4F5147F05120E29AF14A7
:010DCC002204
:100D8700E4FFF513F512E512C394087480948050BC
:100D970016120DB1EFC43333335480FEE513C3137A
:090DA7004EF513051280DFAF13B5
:010DB0002220
:100DE300120E11120C6B7FCC120D487F44020D487A
:100BF400E4FFF50BF50CF50D120DE3120E11120CBA
:100C04006B7FCC120D487FBE120D48120D878F0BDF
:100C1400120D87EFFE7C00E4250BF50DEC3EF50C80
:100C2400E50D30E01FF4FFE50CF4FEEF2401F50DB3
:100C3400E43EF50CFCAD0DE412090BE4FBFA7980FB
:100C440078BD800FAC0CAD0DE412090BE4FBFA790E
:100C540080783D1208008F118E108D0F8C0EAF110D
:060C6400AE10AD0FAC0E56
:010C6A002267
:100DF300D2AF758901758CFC758A66D2A9D28C2213
:070E2900AE071FEE70FA2274
:100DCD00AD071FED600FE4FEEEC394787480948040
:050DDD0050EE0E80F352
:010DE20022EE
:03000B00020D07DC
:100D0700C0E0C0F0C083C082C0D075D000C000C0B2
:100D170001C002C003C004C005C006C007758CFC33
:100D2700758A66120A5ED007D006D005D004D003B4
:100D3700D002D001D000D0D0D082D083D0F0D0E084
:010D47003279
:10080000EC4D6011E8497017ED33EC3304600DE4F2
:10081000FCFFFEFD22E933E8330470F80209B01250
:10082000097B58046009E4CC248150062850090251
:1008300009BA2840030209B7C0E0EB4A7044B98006
:1008400006D0E0FB0209A6EF4E701CBD8008EBFF4E
:10085000EAFEE9FD80EBE98DF0A4FEE5F00208E98F
:10086000E9CDF9EAFEEBFFEF89F0A4FCE5F0CE89D3
:10087000F0A42EFFE435F0CD89F0A42DFEE435F090
:100880008067EF4E7005BD80D780C3EF8BF0A4ACBE
:10089000F0EE8BF0A42CFCE435F0F8EF8AF0A42CF9
:1008A000E5F038FCE433CB8DF0A42CFCE5F03BF80C
:1008B000EE8AF0A42CFCE5F038F8E433CF89F0A4FC
:1008C0002CFCE5F038CF3400CE89F0A42FFFE5F002
:1008D0003EFEE433C98DF0A42EFEE5F039CD8AF05A
:1008E000A42FFFE5F03EFEE43DFD33D0E0FB5007D2
:1008F0000BBB000F0209BAEC2CFCEF33FFEE33FE0A
:06090000ED33FD02099237
:1009060075F020800E75F010800575F0087D007E6C
:10091600007F003392D530D5031209FBEC3340102B
:10092600EF33FFEE33FEED33FDEC33FCD5F0ED2275
:0E093600E5F0247EA2D513CC92E7CDCEFF22B1
:10094400EDD2E7CD33EC3392D524814006E4FFFEAB
:10095400FDFC22FCE4CFCECDCC24E0501174FF800A
:10096400EDC3CC13CCCD13CDCE13CECF13CF0470A7
:07097400F030D5DE0209FBA3
:10097B00E9D2E7C933E833F892D5EDD2E7CD33ECC2
:07098B0033FC5002B2D5223B
:10099200EC30E7100FBF000C0EBE00080DBD0004C6
:1009A2000BEB6014A2D5EB13FCED92E7FD2274FF72
:1009B200FCFDFEFF22E480F8A2D574FF13FC7D80CB
:0309C200E480EFDF
:03000000020AEB06
:0C0AEB00787FE4F6D8FD75811E020B3206
:1009C500C2D5EC30E709B2D5E4C39DFDE49CFCEE4D
:1009D50030E715B2D5E4C39FFFE49EFE120A09C3B2
:1009E500E49DFDE49CFC8003120A0930D507C3E4AD
:0609F5009FFFE49EFE22BC
:0E09FB00C3E49FFFE49EFEE49DFDE49CFC220D
:100AF700020CBEE493A3F8E493A34003F68001F24B
:100B070008DFF48029E493A3F85407240CC8C333FF
:100B1700C4540F4420C8834004F456800146F6DFCE
:100B2700E4800B0102040810204080900E03E47E4D
:100B3700019360BCA3FF543F30E509541FFEE493C3
:100B4700A360010ECF54C025E060A840B8E493A38A
:100B5700FAE493A3F8E493A3C8C582C8CAC583CAB5
:100B6700F0A3C8C582C8CAC583CADFE9DEE780BE6D
:010E100000E1
:100A0900BC000BBE0029EF8DF084FFADF022E4CCD1
:100A1900F875F008EF2FFFEE33FEEC33FCEE9DEC9A
:100A2900984005FCEE9DFE0FD5F0E9E4CEFD22EDE0
:100A3900F8F5F0EE8420D21CFEADF075F008EF2F2A
:100A4900FFED33FD4007985006D5F0F222C398FD1B
:050A59000FD5F0EA22B8
:00000001FF
