:03000000020A36BB
:0C0A3600787FE4F6D8FD758124020A7D6B
:0A0B21003F065B4F666D7D077F6F96
:100B0C00081D0000000000000000011C000219007C
:040B1C0000011B00B9
:100AC200E4F50BF50AF509F508C2A2C2A3C2A4D245
:100AD200AF758910758DFC758B66D2ABD28EF580A1
:100AE200E51C640170FAF51CAF0BAE0AAD09AC0847
:100AF200120999E50B2401F50BE4350AF50AE435F0
:0A0B020009F509E43508F50880D66E
:080999008F0F8E0E8D0D8C0CEA
:1009A100E4F510AF10EF3395E0FEC3EF9408EE6469
:1009B1008094805037E47B0AFAF9F8AF0FAE0EADA0
:1009C1000DAC0C12083CAF0374112510F8A607AF4B
:1009D1000FAE0EAD0DAC0CE47B0AFAF9F812083C2F
:1009E1008F0F8E0E8D0D8C0C051080B7751007AF13
:1009F10010EF3395E0FEC3EF9401EE6480948040E4
:100A01001174112FF8E6700A741D2FF8E4F6151011
:100A110080DDAF10EF3395E0C3648094804015749E
:100A2100112FF8E6900B2193FF741D2510F8A607EE
:040A3100151080DE3E
:010A3500229E
:03001B000208CE0A
:0D08CE00C0E0C083C082C0D075D000C00063
:1008DB00758DFC758B66051AE51A70020519C394A4
:1008EB00E8E51994034009751900751A00751C0188
:1008FB00758000E51BB40800400302098E90090FB8
:10090B00F828287302092702093402094102094E0B
:10091B0002095B020968020975020982C2A2C2A31D
:10092B00C2A4051B851D80805AD2A2C2A3C2A405F6
:10093B001B851E80804DC2A2D2A3C2A4051B851F9E
:10094B00808040D2A2D2A3C2A4051B852080803315
:10095B00C2A2C2A3D2A4051B8521808026D2A2C22B
:10096B00A3D2A4051B8522808019C2A2D2A3D2A434
:10097B00051B852380800CD2A2D2A3D2A4751B00A9
:03098B0085248040
:0B098E00D000D0D0D082D083D0E03267
:100A4200020AC2E493A3F8E493A34003F68001F2FE
:100A520008DFF48029E493A3F85407240CC8C333B5
:100A6200C4540F4420C8834004F456800146F6DF84
:100A7200E4800B0102040810204080900B0CE47EFD
:100A8200019360BCA3FF543F30E509541FFEE49379
:100A9200A360010ECF54C025E060A840B8E493A340
:100AA200FAE493A3F8E493A3C8C582C8CAC583CA6B
:100AB200F0A3C8C582C8CAC583CADFE9DEE780BE23
:010B200000D4
:1008000075F008758200EF2FFFEE33FECD33CDCCAF
:1008100033CCC58233C5829BED9AEC99E582984032
:100820000CF582EE9BFEED9AFDEC99FC0FD5F0D60F
:10083000E4CEFBE4CDFAE4CCF9A88222B800C1B939
:100840000059BA002DEC8BF084CFCECDFCE5F0CB77
:10085000F97818EF2FFFEE33FEED33FDEC33FCEBB0
:1008600033FB10D703994004EB99FB0FD8E5E4F96B
:10087000FA227818EF2FFFEE33FEED33FDEC33FC58
:10088000C933C910D7059BE99A4007EC9BFCE99A4C
:10089000F90FD8E0E4C9FAE4CCFB2275F010EF2F91
:1008A000FFEE33FEED33FDCC33CCC833C810D70791
:1008B0009BEC9AE899400AED9BFDEC9AFCE899F8CC
:0E08C0000FD5F0DAE4CDFBE4CCFAE4C8F9225F
:00000001FF
