:03000000020B41AF
:0C0B4100787FE4F6D8FD758122020B8855
:0A0BE4003F065B4F666D7D077F6FD3
:100BCD000A090000000000000000000001080002FA
:060BDD00130000011500E9
:10080000E4F519F518F517F516D2AF758901758C51
:10081000FC758A66D2A9D28CE508640170FAF508E5
:10082000E5192401F519E43518F518E43517F5171D
:10083000E43516F516E47B0AFAF9F8AF19AE18ADEF
:1008400017AC16120AAF74E42BF582740B3AF583D9
:10085000E493F509E47B0AFAF9F8AF19AE18AD177D
:10086000AC16120AAFE47B0AFAF9F8120AAF74E484
:100870002BF582740B3AF583E493F50AE47B64FA72
:10088000F9F8AF19AE18AD17AC16120AAFE47B0A2F
:10089000FAF9F8120AAF74E42BF582740B3AF58377
:1008A000E493F50BE47BE87A03F9F8AF19AE18ADE1
:1008B00017AC16120AAFE47B0AFAF9F8120AAF7401
:1008C000E42BF582740B3AF583E493F50CE47B108A
:1008D0007A27F9F8AF19AE18AD17AC16120AAFE4C3
:1008E0007B0AFAF9F8120AAF74E42BF582740B3A1A
:1008F000F583E493F50D7BA07A8679017800AF1932
:10090000AE18AD17AC16120AAFE47B0AFAF9F8126A
:100910000AAF74E42BF582740B3AF583E493F50E79
:100920007B407A42790F7800AF19AE18AD17AC163C
:10093000120AAFE47B0AFAF9F8120AAF74E42BF555
:1009400082740B3AF583E493F50F7B807A9679985D
:100950007800AF19AE18AD17AC16120AAFE47B0AD7
:10096000FAF9F8120AAF74E42BF582740B3AF583A6
:07097000E493F510020818E2
:03000B0002097770
:10097700C0E0C083C082C0D075D000C000758CFCB9
:10098700758A660514E51470020513C394E8E51328
:1009970094034009751300751400750801758000EC
:1009A700E515B408004003020A689009B8F828283A
:1009B700730209D00209E40209F7020A0A020A1DB2
:1009C700020A30020A43020A56E509643F6009C277
:1009D700A2C2A3C2A48509800515020A68E50A64B4
:1009E7003F6009D2A2C2A3C2A4850A8005158071FF
:1009F700E50B643F6009C2A2D2A3C2A4850B8005A0
:100A070015805EE50C643F6009D2A2D2A3C2A4851B
:100A17000C800515804BE50D643F6009C2A2C2A397
:100A2700D2A4850D8005158038E50E643F6009D294
:100A3700A2C2A3D2A4850E8005158025E50F643FC9
:100A47006009C2A2D2A3D2A4850F8005158012E542
:100A570010643F6009D2A2D2A3D2A4851080751575
:0C0A670000D000D0D0D082D083D0E0328C
:100B4D00020800E493A3F8E493A34003F68001F2B6
:100B5D0008DFF48029E493A3F85407240CC8C333A9
:100B6D00C4540F4420C8834004F456800146F6DF78
:100B7D00E4800B0102040810204080900BCDE47E30
:100B8D00019360BCA3FF543F30E509541FFEE4936D
:100B9D00A360010ECF54C025E060A840B8E493A334
:100BAD00FAE493A3F8E493A3C8C582C8CAC583CA5F
:100BBD00F0A3C8C582C8CAC583CADFE9DEE780BE17
:010BE3000011
:100A730075F008758200EF2FFFEE33FECD33CDCC3A
:100A830033CCC58233C5829BED9AEC99E5829840BD
:100A93000CF582EE9BFEED9AFDEC99FC0FD5F0D69A
:100AA300E4CEFBE4CDFAE4CCF9A88222B800C1B9C4
:100AB3000059BA002DEC8BF084CFCECDFCE5F0CB02
:100AC300F97818EF2FFFEE33FEED33FDEC33FCEB3B
:100AD30033FB10D703994004EB99FB0FD8E5E4F9F6
:100AE300FA227818EF2FFFEE33FEED33FDEC33FCE3
:100AF300C933C910D7059BE99A4007EC9BFCE99AD7
:100B0300F90FD8E0E4C9FAE4CCFB2275F010EF2F1B
:100B1300FFEE33FEED33FDCC33CCC833C810D7071B
:100B23009BEC9AE899400AED9BFDEC9AFCE899F856
:0E0B33000FD5F0DAE4CDFBE4CCFAE4C8F922E9
:00000001FF
