:03000000020AC32E
:0C0AC300787FE4F6D8FD758114020B0A60
:0A0BA700C0F9A4B0999282F8809082
:100B9300060AFFFFFFFFFFFF02080000021000002C
:030BA3000112003C
:10092300E4F513F514D293C294D2AF758901758C93
:10093300FCF58AD2A9D28CE512640170FAF512058E
:1009430014E51470020513AE13FF7C007D0A120830
:100953000074A72DF582740B3CF583E493F50AAE7E
:1009630013AF147C007D0A1208007C007D0A120874
:100973000074A72DF582740B3CF583E493F50BAE5D
:1009830013AF147C007D641208007C007D0A1208FA
:100993000074A72DF582740B3CF583E493F50CAE3C
:1009A30013AF147C037DE81208007C007D0A120853
:1009B3000074A72DF582740B3CF583E493F50DAE1B
:1009C30013AF147C277D101208007C007D0A1208E7
:1009D3000074A72DF582740B3CF583E493F50EAEFA
:1009E30013AF14E4FCFD7BA07A867901F8120B4F58
:1009F300E47B0AFAF9F8120B4F74A72BF582740BF8
:0A0A03003AF583E493F50F02093A77
:03000B00020A0DD9
:100A0D00C0E0C0D0758CFC758A000509E50970023F
:100A1D000508C394E8E508940340097508007509B5
:100A2D00007512017580FFE5106003020ABEE51125
:100A3D0014602314603314604314605314606324F2
:100A4D0005706EC290C291C2920511E5117002053A
:100A5D0010850A80805BD290C291C2920511E5117A
:100A6D0070020510850B808048C290D291C292050C
:100A7D0011E51170020510850C808035D290D29150
:100A8D00C2920511E51170020510850D808022C2FC
:100A9D0090C291D2920511E51170020510850E805C
:100AAD00800FD290C291D292751000751100850FF2
:060ABD0080D0D0D0E03231
:100ACF00020923E493A3F8E493A34003F68001F211
:100ADF0008DFF48029E493A3F85407240CC8C33328
:100AEF00C4540F4420C8834004F456800146F6DFF7
:100AFF00E4800B0102040810204080900B93E47EE9
:100B0F00019360BCA3FF543F30E509541FFEE493EB
:100B1F00A360010ECF54C025E060A840B8E493A3B2
:100B2F00FAE493A3F8E493A3C8C582C8CAC583CADD
:100B3F00F0A3C8C582C8CAC583CADFE9DEE780BE95
:010BA600004E
:10080000BC000BBE0029EF8DF084FFADF022E4CCDC
:10081000F875F008EF2FFFEE33FEEC33FCEE9DECA5
:10082000984005FCEE9DFE0FD5F0E9E4CEFD22EDEB
:10083000F8F5F0EE8420D21CFEADF075F008EF2F35
:10084000FFED33FD4007985006D5F0F222C398FD26
:050850000FD5F0EA22C3
:100B4F00C2D5E830E70FB2D5E4C39BFBE49AFAE4D1
:100B5F0099F9E498F8EC30E717B2D5120B85120823
:100B6F0091E4C39BFBE49AFAE499F9E498F88003C3
:100B7F0012089130D50DE4C39FFFE49EFEE49DFD66
:040B8F00E49CFC22C4
:1008550075F008758200EF2FFFEE33FECD33CDCC5A
:1008650033CCC58233C5829BED9AEC99E5829840DD
:100875000CF582EE9BFEED9AFDEC99FC0FD5F0D6BA
:10088500E4CEFBE4CDFAE4CCF9A88222B800C1B9E4
:100895000059BA002DEC8BF084CFCECDFCE5F0CB22
:1008A500F97818EF2FFFEE33FEED33FDEC33FCEB5B
:1008B50033FB10D703994004EB99FB0FD8E5E4F916
:1008C500FA227818EF2FFFEE33FEED33FDEC33FC03
:1008D500C933C910D7059BE99A4007EC9BFCE99AF7
:1008E500F90FD8E0E4C9FAE4CCFB2275F010EF2F3C
:1008F500FFEE33FEED33FDCC33CCC833C810D7073C
:100905009BEC9AE899400AED9BFDEC9AFCE899F876
:0E0915000FD5F0DAE4CDFBE4CCFAE4C8F92209
:00000001FF
