:03000000020AD51C
:0C0AD500787FE4F6D8FD758116020B1C3A
:0A0B7500C0F9A4B0999282F88090B4
:100B6100060AFFFFFFFFFFFF02080000021000005E
:030B71000112006E
:1008000075164075154275140F751300D293C29476
:10081000D2AF758901758CFCE4F58AD2A9D28CE53A
:1008200012640170FAF512E51624FFF516E5153489
:10083000FFF515E51434FFF514E51334FFF513E463
:100840007B0AFAF9F8AF16AE15AD14AC13120A43D1
:1008500074752BF582740B3AF583E493F50AE47B07
:100860000AFAF9F8AF16AE15AD14AC13120A43E448
:100870007B0AFAF9F8120A4374752BF582740B3A65
:10088000F583E493F50BE47B64FAF9F8AF16AE1543
:10089000AD14AC13120A43E47B0AFAF9F8120A43C6
:1008A00074752BF582740B3AF583E493F50CE47BB5
:1008B000E87A03F9F8AF16AE15AD14AC13120A437B
:1008C000E47B0AFAF9F8120A4374752BF582740B6B
:1008D0003AF583E493F50DE47B107A27F9F8AF1627
:1008E000AE15AD14AC13120A43E47B0AFAF9F81200
:1008F0000A4374752BF582740B3AF583E493F50E75
:100900007BA07A8679017800AF16AE15AD14AC13D2
:10091000120A43E47B0AFAF9F8120A4374752BF5BC
:0D09200082740B3AF583E493F50F02081F73
:03000B0002092DBA
:10092D00C0E0C0D0758CFC758A000509E509700220
:10093D000508C394E8E50894034009750800750996
:10094D00007512017580FFE5106003020A02E511C2
:10095D0014602914603F14605514606B1470030209
:10096D0009ED24056003020A02C290C291C29205EC
:10097D0011E51170020510850A808079E50B64C0C0
:10098D006009D290C291C292850B800511E511705C
:10099D000205108060E50C64C06009C290D291C25E
:1009AD0092850C800511E511700205108047E50D4B
:1009BD0064C06009D290D291C292850D800511E577
:1009CD001170020510802EE50E64C06009C290C240
:1009DD0091D292850E800511E511700205108015DA
:1009ED00E50F64C06009D290C291D292850F8075D7
:0A09FD001000751100D0D0D0E032D8
:100AE100020800E493A3F8E493A34003F68001F223
:100AF10008DFF48029E493A3F85407240CC8C33316
:100B0100C4540F4420C8834004F456800146F6DFE4
:100B1100E4800B0102040810204080900B61E47E08
:100B2100019360BCA3FF543F30E509541FFEE493D9
:100B3100A360010ECF54C025E060A840B8E493A3A0
:100B4100FAE493A3F8E493A3C8C582C8CAC583CACB
:100B5100F0A3C8C582C8CAC583CADFE9DEE780BE83
:010B74000080
:100A070075F008758200EF2FFFEE33FECD33CDCCA6
:100A170033CCC58233C5829BED9AEC99E582984029
:100A27000CF582EE9BFEED9AFDEC99FC0FD5F0D606
:100A3700E4CEFBE4CDFAE4CCF9A88222B800C1B930
:100A47000059BA002DEC8BF084CFCECDFCE5F0CB6E
:100A5700F97818EF2FFFEE33FEED33FDEC33FCEBA7
:100A670033FB10D703994004EB99FB0FD8E5E4F962
:100A7700FA227818EF2FFFEE33FEED33FDEC33FC4F
:100A8700C933C910D7059BE99A4007EC9BFCE99A43
:100A9700F90FD8E0E4C9FAE4CCFB2275F010EF2F88
:100AA700FFEE33FEED33FDCC33CCC833C810D70788
:100AB7009BEC9AE899400AED9BFDEC9AFCE899F8C3
:0E0AC7000FD5F0DAE4CDFBE4CCFAE4C8F92256
:00000001FF
